:100000000C9435070C945D070C945D070C945D0708
:100010000C945D070C945D070C945D070C945D07D0
:100020000C945D070C945D070C945D070C945D07C0
:100030000C945D070C945D070C945D070C945D07B0
:100040000C949E0A0C945D070C94DF0D0C94110E19
:100050000C945D070C945D070C945D070C945D0790
:100060000C945D070C945D0707010100000000007F
:100070000000000040800010200000000018000078
:100080000000201000804000000000000000181850
:10009000989898989898E0E0000098989898989880
:1000A0009898F8F8000000000000F8F818181818E0
:1000B0001818F8F800000000000101070000000017
:1000C000000000001012020000000000000000000C
:1000D00098881808040402020000000002121000B0
:1000E000000018181919191919191F1F00001F1FCE
:1000F00019191919191919190000181800001F1FCA
:100100001818181818181F1F000000000000000021
:1001100000000000000000000000000000000000DF
:10012000000000800E3B2E800000000000011F0038
:100130000000171515151F0000000000000000004A
:1001400000000000000000000000000000000000AF
:10015000000000000000000000000000000000009F
:10016000000000000000000000000000000000008F
:10017000000000000000003F0037003F00000000CA
:100180001F1111111F001F1111111F001F1515152F
:100190001F001D15151517000000000000000000CD
:1001A000000000000000000000000000000000004F
:1001B000000000000000000000000000000000003F
:1001C00000000000000000000000BE003C00200015
:1001D000BC0000001D1515151700070404041F00BE
:1001E0001000111515151E00000000000000000091
:1001F00000000000000000000000000000000000FF
:10020000000000000000000000000000E08080000E
:10021000000000000000000000000000000020318D
:100220003A3C3A31200000001F1111111F0000015B
:100230001F0000000A00171515151D00000101011F
:100240001F0000000000000000000000000000008F
:10025000000000000000000000000000008080E0BE
:1002600007010100000000000000000040800010B5
:100270002000000000180000C00020100080400096
:100280000000000000001818989898989898E0E0EE
:1002900000009898989898989898F8F800000000AE
:1002A0000000F8F8181818181818F8F800000000DE
:1002B0000001010700000000000000001012020011
:1002C000000000000000808018081C0300000000EF
:1002D0000000000002121000000018181919191966
:1002E00019191F1F00001F1F191919191919191998
:1002F0000000181800001F1F1818181818181F1FC2
:1003000000000000000000000000000000000000ED
:100310000000000000000000000000800F8A1EA006
:100320002000000000011F000000171515151F0018
:1003300000000000000000000000000000000000BD
:1003400000000000000000000000000000000000AD
:10035000000000000000000000000000000000009D
:100360000000000000000000000000000000003F4E
:10037000003B003F000000001F1111111F001F1162
:1003800011111F001F1515151F001D15151517003C
:10039000000000000000000000000000000000005D
:1003A000000000000000000000000000000000004D
:1003B000000000000000000000000000000000003D
:1003C0000000B0003C003800BF0000001D151515EE
:1003D0001700070404041F001000111515151E0056
:1003E000000000000000000000000000000000000D
:1003F00000000000000000000000000000000000FD
:1004000000000000E080800000000000000000000C
:1004100000000000000020313A3C3A31200000008A
:100420001F1111111F0000011F0000000A00171505
:1004300015151D00000101011F0000000000000053
:1004400000000000000000000000000000000000AC
:1004500000000000008080E00701010000000000B3
:100460000000000040800010200000000098000004
:10047000000020100080400000000000000018185C
:10048000989898989898E0E000009898989898988C
:100490009898F8F8000000000000F8F818181818EC
:1004A0001818F8F800000000000101070000000023
:1004B0000000000010120200000000000000000018
:1004C000181F1800000000000000000002121000B9
:1004D000000018181919191919191F1F00001F1FDA
:1004E00019191919191919190000181800001F1FD6
:1004F0001818181818181F1F00000000000000002E
:1005000000000000000000000000000000000000EB
:10051000000001820E8A0E881000000000011F00FA
:100520000000171515151F00000000000000000056
:1005300000000000000000000000000000000000BB
:1005400000000000000000000000000000000000AB
:10055000000000000000000000000000000000009B
:10056000000000000000003F001D003F00000000F0
:100570001F1111111F001F1111111F001F1515153B
:100580001F001D15151517000000000000000000D9
:10059000000000000000000000000000000000005B
:1005A000000000000000000000000000000000004B
:1005B00000000000000000000000BE0038003F0006
:1005C000A00000001D1515151700070404041F00E6
:1005D0001000111515151E0000000000000000009D
:1005E000000000000000000000000000000000000B
:1005F000000000000000000000000000E08080001B
:100600000000000000000000000000000000203199
:100610003A3C3A31200000001F1111111F00000167
:100620001F0000000A00171515151D00000101012B
:100630001F0000000000000000000000000000009B
:10064000000000000000000000000000008080E0CA
:1006500007010100000000000000000040800010C1
:1006600020000000001800C00000201000804000A2
:100670000000000000001818989898989898E0E0FA
:1006800000009898989898989898F8F800000000BA
:100690000000F8F8181818181818F8F800000000EA
:1006A000000101070000000000000000101202001D
:1006B000000000000000000018081F0000000000FB
:1006C0000000000002121000000018181919191972
:1006D00019191F1F00001F1F1919191919191919A4
:1006E0000000181800001F1F1818181818181F1FCE
:1006F00000000000000000000000000000000000FA
:100700000000000000000000000004840E8A0E8437
:100710000400000000011F000000171515151F0040
:1007200000000000000000000000000000000000C9
:1007300000000000000000000000000000000000B9
:1007400000000000000000000000000000000000A9
:100750000000000000000000000000000000003F5A
:10076000002E003F000000001F1111111F001F117B
:1007700011111F001F1515151F001D151515170048
:100780000000000000000000000000000000000069
:100790000000000000000000000000000000000059
:1007A0000000000000000000000000000000000049
:1007B0000000BC0030003E00B00000001D15151503
:1007C0001700070404041F001000111515151E0062
:1007D0000000000000000000000000000000000019
:1007E0000000000000000000000000000000000009
:1007F00000000000E0808000000000000000000019
:1008000000000000000020111A1E1A112000000034
:100810001F1111111F0000011F0000000A00171511
:1008200015151D00000101011F000000000000005F
:1008300000000000000000000000000000000000B8
:1008400000000000008080E00701010000000000BF
:100850000000000040800010200000000018000090
:1008600080002010008040000000000000001818E8
:10087000989898989898E0E0000098989898989898
:100880009898F8F8000000000000F8F818181818F8
:100890001818F8F80000000000010107000000002F
:1008A0000000000010120200000000000000000024
:1008B00018081C03000000000000000002121000D5
:1008C000000018181919191919191F1F00001F1FE6
:1008D00019191919191919190000181800001F1FE2
:1008E0001818181818181F1F00000000000000003A
:1008F00000000000000000000000000000000000F8
:10090000000010880E0A0E820100000000011F0086
:100910000000171515151F00000000000000000062
:1009200000000000000000000000000000000000C7
:1009300000000000000000000000000000000000B7
:1009400000000000000000000000000000000000A7
:10095000000000000000003F0037003F00000000E2
:100960001F1111111F001F1111111F001F15151547
:100970001F001D15151517000000000000000000E5
:100980000000000000000000000000000000000067
:100990000000000000000000000000000000000057
:1009A00000000000000000000000B80038003C001B
:1009B000A00000001D1515151700070404041F00F2
:1009C0001000111515151E000000000000000000A9
:1009D0000000000000000000000000000000000017
:1009E000000000000000000000000000E080800027
:1009F00000000000000000000000000000002011C6
:100A00000B0F0B11200000001F1111111F0000011E
:100A10001F0000000A00171515151D000001010137
:100A20001F000000000000000000000000000000A7
:100A3000000000000000000000000000008080E0D6
:100A400007010100000000000000000040800010CD
:100A500020000000001800000000A01000804000EE
:100A60000000000000001818989898989898E0E006
:100A700000009898989898989898F8F800000000C6
:100A80000000F8F8181818181818F8F800000000F6
:100A90000001010700000000000000001012020029
:100AA0000000000000000000180818848201000007
:100AB000000000000212100000001818191919197E
:100AC00019191F1F00001F1F1919191919191919B0
:100AD0000000181800001F1F1818181818181F1FDA
:100AE0000000000000000000000000000000000006
:100AF0000000000000000000000020A01E8A0F80FF
:100B00000000000000011F000000171515151F0050
:100B100000000000000000000000000000000000D5
:100B200000000000000000000000000000000000C5
:100B300000000000000000000000000000000000B5
:100B40000000000000000000000000000000003F66
:100B5000003B003F000000001F1111111F001F117A
:100B600011111F001F1515151F001D151515170054
:100B70000000000000000000000000000000000075
:100B80000000000000000000000000000000000065
:100B90000000000000000000000000000000000055
:100BA0000000B080BC80B880BF0000001D15151586
:100BB0001700070404041F001000111515151E006E
:100BC0000000000000000000000000000000000025
:100BD0000000000000000000000000000000000015
:100BE00000000000E0808000000000000000000025
:100BF00000000000000020110B070B112000000076
:100C00001F1111111F0000011F0000000A0017151D
:100C100015151D00000101011F000000000000006B
:100C200000000000000000000000000000000000C4
:100C300000000000008080E0000000000000005F75
:100C400000000007000700147F147F14242A7F2A65
:100C50001223130864623649552250000503000030
:100C6000001C2241000041221C0014083E08140808
:100C7000083E080800503000000808080808006016
:100C800060000020100804023E5149453E00427FAA
:100C9000400042615149462141454B311814127FB1
:100CA0001027454545393C4A49493001710905033A
:100CB0003649494936064949291E003636000000A2
:100CC0005636000008142241001414141414004174
:100CD0002214080201510906324979413E7E111160
:100CE000117E7F494949363E414141227F4141229F
:100CF0001C7F494949417F090909013E4149497A17
:100D00007F0808087F00417F41002040413F017F6C
:100D1000081422417F404040407F020C027F7F0444
:100D200008107F3E4141413E7F090909063E41517D
:100D3000215E7F09192946464949493101017F0150
:100D4000013F4040403F1F2040201F3F4038403F70
:100D5000631408146307087008076151494543008C
:100D60007F41410002040810200041417F0004023D
:100D7000010204404040404000010204002054545D
:100D800054787F48444438384444442038444448E4
:100D90007F3854545418087E0901020C5252523EB6
:100DA0007F0804047800447D40002040443D007FDB
:100DB0001028440000417F40007C041804787C081F
:100DC00004047838444444387C1414140808141477
:100DD000187C7C080404084854545420043F4440C0
:100DE000203C4040207C1C2040201C3C4030403CAB
:100DF00044281028440C5050503C4464544C440047
:100E00000836410000007F0000004136080010084D
:100E100008100878464146780000000800020100EA
:100E200000030407000000000000000001020408A5
:100E30001020408001020408102001020408102044
:100E40000404040404040404020202020202030370
:100E50000303030300000000250028002B0000000E
:100E60000000240027002A00410E11241FBECFEFEE
:100E7000D8E0DEBFCDBF13E0A0E0B1E0E0E3FDE1EC
:100E800002C005900D92A830B107D9F723E0A8E081
:100E9000B3E001C01D92A33BB207E1F717E0C5E341
:100EA000D7E004C02197FE010E94900EC433D10701
:100EB000C9F70E94D00D0C94960E0C940000CF93AD
:100EC000C62F682F85E00E94490C60E087E00E94F1
:100ED000490CCEBD00000DB407FEFDCF8EB561E01C
:100EE00087E0CF910C94490CFC018435910558F5AD
:100EF0006033710540F5DB01A770BB2783E0759572
:100F000067958A95E1F784E5869F9001879F300D6C
:100F10001124E20FF31FE050FF4F442351F081E012
:100F200090E001C0880FAA95EAF79081892B808311
:100F3000089521E030E001C0220FAA95EAF720953C
:100F400080812823208308954F925F926F927F9231
:100F50008F929F92AF92BF92CF92DF92EF92FF92C9
:100F60000F931F93CF93DF93542E452E622EEB01E8
:100F70005B0125E0A20EB11C25E08202C001112414
:100F8000861B970B6C0120EAC21AD10881E0762CEF
:100F90007826F601EC0FFD1FE85CF34FE491E52C99
:100FA000F42C812C912C0E2F10E0C801082C02C0CB
:100FB000959587950A94E2F780FF02C0462D01C0FF
:100FC000472DB701CE010E9474078FEF881A980A47
:100FD0009FEFE91AF90A28E08216910431F7219669
:100FE000CA15DB05B1F6DF91CF911F910F91FF90EC
:100FF000EF90DF90CF90BF90AF909F908F907F90B9
:101000006F905F904F900895A0E0B1E020E030E055
:10101000FC01E20FF31FE491ED932F5F3F4F283F58
:1010200041E03407A9F70895E0E0F1E09FEF88235D
:1010300011F0908301C01082319622E0E83FF20760
:10104000B1F70895CF93C62F682F606880E00E94A3
:101050005F076C2F606480E0CF910C945F07CF93A3
:10106000DF9360E070E080E090E00E942208C0E042
:10107000D1E0699181E00E945F0782E0C83FD80714
:10108000C1F7DF91CF910895CF93C82F61E280E03F
:101090000E945F076C2F606880E00E945F0760E23B
:1010A00080E0CF910C945F0761E087E00E940D0C17
:1010B00061E086E00E940D0C61E085E00E940D0C6D
:1010C00061E08BE00E940D0C61E08DE00E940D0C50
:1010D00061E089E00E940D0C6FEF70E089E00E94F2
:1010E000840B0E94680A8CB5837F8CBD8CB58F7D84
:1010F0008CBD60E086E00E94490C61E086E00E94C1
:10110000490C61E280E00E945F0760EB80E00E9492
:101110005F0764E080E00E945F0764E180E00E9476
:101120005F0760E280E00E945F076CE080E00C9463
:101130005F0726E040E855E260E070E086E193E07A
:101140000E943F0D0E9454080E942F0888E20E94CE
:10115000440860ED77E080E090E00E940D0B86E1AE
:1011600093E00E94790C892BD1F380E00E9414084F
:101170000C942F0886E193E00E94790C892B09F4E6
:10118000A6C186E193E00E94930C8333D9F1CCF49D
:101190008D3009F465C16CF48A3009F066C1809124
:1011A0000A0390910B03089690930B0380930A0314
:1011B00072C1813321F1823309F057C188E498E08C
:1011C00023C0863349F144F4843319F1853309F09F
:1011D0004CC180E692E018C08C3609F18E3709F0D8
:1011E00044C180E00E9414080E942F081092090355
:1011F0001092080310920B0310920A034CC180E472
:101200009AE002C080E596E00E9404080E942F0840
:1012100042C188E594E0F8CF88E690E0F5CF80E41D
:101220009AE00E9404080E942F0860E170E080E0CC
:1012300090E00E940D0B88E498E00E9404080E9450
:101240002F0860E170E080E090E00E940D0B80E5E7
:1012500096E00E9404080E942F0860E170E080E0A0
:1012600090E00E940D0B88E594E00E9404080E9423
:101270002F0860E170E080E090E00E940D0B80E6B6
:1012800092E00E9404080E942F0860E170E080E074
:1012900090E00E940D0B88E690E00E9404080E94F6
:1012A0002F0860E170E080E090E00E940D0B80E488
:1012B0009AE00E9404080E942F0860E170E080E03C
:1012C00090E00E940D0B88E498E00E9404080E94C0
:1012D0002F0860E170E080E090E00E940D0B80E557
:1012E00096E00E9404080E942F0860E170E080E010
:1012F00090E00E940D0B88E594E00E9404080E9493
:101300002F0860E170E080E090E00E940D0B80E625
:1013100092E00E9404080E942F0860E170E080E0E3
:1013200090E00E940D0B88E690E00E9404080E9465
:101330002F0860E170E080E090E00E940D0B80E4F7
:101340009AE00E9404080E942F0860E170E080E0AB
:1013500090E00E940D0B88E498E00E9404080E942F
:101360002F0860E170E080E090E00E940D0B80E5C6
:1013700096E00E9404080E942F0860E170E080E07F
:1013800090E00E940D0B88E594E00E9404080E9402
:101390002F0860E170E080E090E00E940D0B80E695
:1013A00092E00E9404080E942F0860E170E080E053
:1013B00090E00E940D0B88E690E00E9404080E94D5
:1013C0002F0860E170E080E090E00E940D0B80E467
:1013D0009AE00E9404080E942F0860E170E080E01B
:1013E00090E00E940D0B88E498E00E9404080E949F
:1013F0002F0860E170E080E090E00E940D0B80E536
:1014000096E00E9404080E942F0860E170E080E0EE
:1014100090E00E940D0B88E594E00E9404080E9471
:101420002F0860E170E080E090E00E940D0B80E604
:1014300092E00E9404080E942F0860E170E080E0C2
:1014400090E00E940D0B88E690E00E9404080E9444
:101450002F0860E170E080E090E00E940D0B1BC05F
:10146000109209031092080316C040910A0350918C
:101470000B03609108037091090321E00E94A40707
:101480000E942F088091080390910903069690937B
:101490000903809308038091080390910903803524
:1014A0009105ACF0109209031092080380910A0391
:1014B00090910B030896893291052CF490930B03BD
:1014C00080930A03089510920B0310920A03089563
:1014D000CF93CFB7F89480910C03811127C0EAE431
:1014E000FEE08491E6E3FEE09491E82FF0E0EE0F59
:1014F000FF1FE25AF14FA591B491EC91E92321F439
:1015000061E08AE00E94490C61E08AE00E940D0CD3
:101510008CB580618CBD8CB580648CBD61E08DE044
:101520000E940D0C61E08BE00E940D0C80910C0379
:101530008F5F80930C03CFBFCF9108951F920F92BE
:101540000FB60F9211242F933F938F939F93AF93D6
:10155000BF9380910E0390910F03A0911003B0915F
:10156000110330910D0323E0230F2D3720F4019652
:10157000A11DB11D05C026E8230F0296A11DB11DB6
:1015800020930D0380930E0390930F03A0931003F9
:10159000B09311038091120390911303A09114034F
:1015A000B09115030196A11DB11D80931203909374
:1015B0001303A0931403B0931503BF91AF919F91B0
:1015C0008F913F912F910F900FBE0F901F90189504
:1015D0003FB7F8948091120390911303A0911403E4
:1015E000B091150326B5A89B05C02F3F19F00196B1
:1015F000A11DB11D3FBFBA2FA92F982F8827820F99
:10160000911DA11DB11DBC01CD0142E0660F771FE8
:10161000881F991F4A95D1F708958F929F92AF9294
:10162000BF92CF92DF92EF92FF926B017C010E94FA
:10163000E80A4B015C01C114D104E104F10401F199
:101640000E94E30B0E94E80ADC01CB01881999098A
:10165000AA09BB09883E9340A105B10560F321E0CA
:10166000C21AD108E108F10888EE880E83E0981EBE
:10167000A11CB11CC114D104E104F10419F7DBCFA2
:10168000FF90EF90DF90CF90BF90AF909F908F90A2
:101690000895789484B5826084BD84B5816084BDEA
:1016A00085B5826085BD85B5816085BDEEE6F0E0DB
:1016B000808181608083E1E8F0E010828081826037
:1016C0008083808181608083E0E8F0E080818160B8
:1016D0008083E1EBF0E0808184608083E0EBF0E0E8
:1016E000808181608083EAE7F0E08081846080838C
:1016F0008081826080838081816080838081806836
:1017000080831092C10008951F93CF93DF93182F09
:10171000EB0161E00E940D0C209711F460E004C021
:10172000CF3FD10539F461E0812FDF91CF911F9137
:101730000C94490CE12FF0E0E85EF14FE491E330C6
:10174000F9F048F4E130B9F0E230A1F584B58062F7
:1017500084BDC8BD34C0E730E9F0E83019F1E430A9
:1017600049F580918000806280938000D0938B0047
:10177000C0938A0024C084B5806884BDC7BD1FC0E3
:1017800080918000806880938000D0938900C0930E
:10179000880015C08091B00080688093B000C0932D
:1017A000B3000DC08091B00080628093B000C09300
:1017B000B40005C0C038D1050CF0B5CFAFCFDF9174
:1017C000CF911F9108950895833081F028F48130DE
:1017D00099F08230A1F008958730A9F08830B9F0EF
:1017E0008430D1F4809180008F7D03C0809180008F
:1017F0008F7780938000089584B58F7702C084B579
:101800008F7D84BD08958091B0008F7703C0809153
:10181000B0008F7D8093B0000895CF93DF9390E068
:10182000FC01E45DF14F2491FC01E05CF14F8491F7
:10183000882361F190E0880F991FFC01E25AF14F73
:10184000C591D491FC01EC5AF14FA591B49161116D
:1018500009C09FB7F8948881209582238883EC91F2
:101860002E230BC0623061F49FB7F8943881822F29
:10187000809583238883EC912E2B2C939FBF06C0E9
:101880008FB7F894E8812E2B28838FBFDF91CF91FB
:1018900008951F93CF93DF93282F30E0F901E85E7E
:1018A000F14F8491F901E45DF14FD491F901E05CCD
:1018B000F14FC491CC23C9F0162F81110E94E40B83
:1018C000EC2FF0E0EE0FFF1FEC5AF14FA591B49111
:1018D0008FB7F894111105C09C91ED2FE095E92385
:1018E00002C0EC91ED2BEC938FBFDF91CF911F9154
:1018F0000895FC01918D228D892F90E0805C9F4F8F
:10190000821B91098F7399270895FC01918D828D17
:10191000981731F0828DE80FF11D858D90E00895C4
:101920008FEF9FEF0895FC01918D828D981761F0E4
:10193000828DDF01A80FB11D5D968C91928D9F5F06
:101940009F73928F90E008958FEF9FEF089587E344
:101950009EE0892B49F080E090E0892B29F00E94DD
:10196000370E81110C9400000895FC01848DDF0175
:10197000A80FB11DA35ABF4F2C91848D90E0019602
:101980008F739927848FA689B7892C93A089B189F1
:101990008C9180648C93938D848D981306C00288FB
:1019A000F389E02D80818F7D80830895CF93DF932D
:1019B000EC01888D8823C9F0EA89FB89808185FD47
:1019C00005C0A889B9898C9186FD0FC00FB607FCA8
:1019D000F5CF808185FFF2CFA889B9898C9185FFE9
:1019E000EDCFCE010E94B50CE7CFDF91CF910895E6
:1019F000EF92FF920F931F93CF93DF93EC0181E05F
:101A0000888F9B8D8C8D981305C0E889F98980811A
:101A100085FD24C0F62E0B8D10E00F5F1F4F0F7356
:101A20001127E02E8C8DE8120CC00FB607FCFACF00
:101A3000E889F989808185FFF5CFCE010E94B50C38
:101A4000F1CF8B8DFE01E80FF11DE35AFF4FF082BD
:101A50000B8FEA89FB898081806207C0EE89FF894C
:101A60006083E889F98980818064808381E090E0E7
:101A7000DF91CF911F910F91FF90EF900895CF923A
:101A8000DF92EF92FF921F93CF93DF93EC016A01F5
:101A90007B01122FE889F98982E080834115514E3C
:101AA00061057105B1F060E079E08DE390E0A70198
:101AB00096010E946E0EDA01C9010197A109B109D0
:101AC000B695A79597958795AC01411580E1580784
:101AD000A8F0E889F989108260E874E88EE190E066
:101AE000A70196010E946E0EBA01A9014150510949
:101AF000610971097695679557954795EC85FD8540
:101B00005083EE85FF854083188EEC89FD89108314
:101B1000EA89FB89808180618083EA89FB898081F1
:101B200088608083EA89FB89808180688083EA8974
:101B3000FB8980818F7D8083DF91CF911F91FF9002
:101B4000EF90DF90CF900895CF92DF92EF92FF92C7
:101B50000F931F93CF93DF936C017A018B01C0E049
:101B6000D0E0CE15DF0589F0D8016D918D01D60149
:101B7000ED91FC910190F081E02DC6010995892B32
:101B800011F47E0102C02196ECCFC701DF91CF9105
:101B90001F910F91FF90EF90DF90CF9008950895DF
:101BA0000E94490B0E94CF0D0E949908C7EADCE011
:101BB0000E94BA082097E1F30E94A70CF9CF1F9268
:101BC0000F920FB60F9211242F938F939F93EF9341
:101BD000FF93E0912603F09127038081E0912C038D
:101BE000F0912D0382FD12C0908180912F038F5FB1
:101BF0008F7320913003821751F0E0912F03F0E0B2
:101C0000EA5EFC4F958F80932F0301C08081FF9186
:101C1000EF919F918F912F910F900FBE0F901F907A
:101C200018951F920F920FB60F9211242F933F9386
:101C30004F935F936F937F938F939F93AF93BF93D4
:101C4000EF93FF9386E193E00E94B50CFF91EF9133
:101C5000BF91AF919F918F917F916F915F914F91C4
:101C60003F912F910F900FBE0F901F90189586E116
:101C700093E00E94790C21E0892B09F420E0822F67
:101C80000895E6E1F3E01382128288EE93E0A0E08B
:101C9000B0E084839583A683B7838CEF92E0918331
:101CA000808385EC90E09587848784EC90E097872B
:101CB000868780EC90E0918B808B81EC90E0938B19
:101CC000828B82EC90E0958B848B86EC90E0978BF6
:101CD000868B118E128E138E148E0895A1E21A2E09
:101CE000AA1BBB1BFD010DC0AA1FBB1FEE1FFF1FC0
:101CF000A217B307E407F50720F0A21BB30BE40B10
:101D0000F50B661F771F881F991F1A9469F7609556
:101D10007095809590959B01AC01BD01CF01089510
:101D2000EE0FFF1F0590F491E02D0994F894FFCF7A
:101D300000000000000000000000000000000000A3
:101D40000000000000000000000000000000000093
:101D5000000000E0F0F8FCFCFEFEFEFE1E0E02009D
:101D60000000000000000000000000000000000073
:101D70000000000000000000000000000000000063
:101D80000000000000000000000000000000000053
:101D90000000000000000000000000000000000043
:101DA00000000000000000030F1F3F7FFFFFFFFF48
:101DB000FFFEFCF8F8F0F8FEFEFCF8E00000000082
:101DC0000000000000000000000000000000000013
:101DD0000000000000000000000000000000000003
:101DE00000000000000000000000000000000000F3
:101DF0000000F8FCFEFEFFFFF3E0E0C0C0C0E0E042
:101E0000F1FFFFFFFFFFFFFFFFFFFFFFFFFFFFFFF0
:101E10003E00000000000000000000000000000084
:101E200000000000000000000000000000000000B2
:101E300000000000000000000000000000000000A2
:101E4000000000000000FFFFFFFFFFFFFFFFFFFF9C
:101E5000FFFFFFFFFFFFFFFFFFFFFFFFFFFFFF7F12
:101E60003F1F07010000000000000000000000000C
:101E70000000000000000000000000000000000062
:101E80000000000000000000000000000000000052
:101E900000000000000000000000FFFFFFFFFFFF48
:101EA000FF7F3F1F0F0F0F070707070707070303F2
:101EB0000101000000000000000000000000000020
:101EC0000000000000000000000000000000000012
:101ED0000000000000000000000000000000000002
:101EE00000000000000000000000000000003F1F94
:101EF0000F070301000000000000000000000000C8
:101F000000000000000000000000000000000000D1
:101F100000000000000000000000000000000000C1
:101F2000000000000000000000000000F80CA40DFC
:081F3000790C930C850CD60C12
:00000001FF
